:1000000071C0000081C000007FC000007DC0000002
:100010007BC0000079C0000077C0000075C0000000
:1000200073C0000071C000006FC000006DC0000010
:100030006BC0000069C0000067C0000065C0000020
:1000400063C0000061C000005FC000005DC0000030
:100050005BC0000059C0000057C0000055C0000040
:1000600053C0000051C000004FC000004DC0000050
:100070004BC0000049C0000047C0000045C0000060
:1000800043C0000041C000003FC000003DC0000070
:100090003BC0000039C0000037C0000035C0000080
:1000A00033C0000031C000002FC000002DC0000090
:1000B0002BC0000029C0000027C0000026C000009F
:1000C00023C0000021C000001FC000001DC00000B0
:1000D0001BC0000019C0000017C0000015C00000C0
:1000E00013C0000011241FBECFEFD1E2DEBFCDBF91
:1000F00000E00CBF22E0A0E0B2E001C01D92A430FD
:10010000B207E1F727D0D1C07BCF1F920F920FB675
:100110000F9211248F939F93AF93BF93809100020E
:1001200090910102A0910202B09103020196A11DDB
:10013000B11D8093000290930102A0930202B0933C
:100140000302BF91AF919F918F910F900FBE0F90BF
:100150001F9018958FEF87B918B891E098B92FEFD5
:1001600039E688E1215030408040E1F700C00000CE
:1001700088B1880F88B92FEF39E688E121503040E7
:100180008040E1F700C0000088B1880F88B92FEFE8
:1001900039E688E1215030408040E1F700C000009E
:1001A00088B1880F88B92FEF39E688E121503040B7
:1001B0008040E1F700C0000088B1880F88B92FEFB8
:1001C00039E688E1215030408040E1F700C000006E
:1001D00088B1880F88B92FEF39E688E12150304087
:1001E0008040E1F700C0000088B1880F88B92FEF88
:1001F00039E688E1215030408040E1F700C000003E
:1002000088B1880F88B92FEF39E688E12150304056
:100210008040E1F700C0000088B1869588B92FEFD3
:1002200039E688E1215030408040E1F700C000000D
:1002300088B1869588B92FEF39E688E121503040A2
:100240008040E1F700C0000088B1869588B92FEFA3
:1002500039E688E1215030408040E1F700C00000DD
:1002600088B1869588B92FEF39E688E12150304072
:100270008040E1F700C0000088B1869588B92FEF73
:1002800039E688E1215030408040E1F700C00000AD
:1002900088B1869588B92FEF39E688E12150304042
:0E02A0008040E1F700C0000059CFF894FFCF76
:00000001FF
